:1020000000800020F9A00000F5A00000E9740000A5
:1020100000000000000000000000000000000000C0
:10202000000000000000000000000000F5A000001B
:102030000000000000000000F5A00000F5A0000076
:10204000F5A00000F5A00000F5A00000F5A000003C
:10205000811D0100F5A00000A13F0100E908010079
:10206000F5A00000253C0100353C0100453C010085
:10207000553C0100653C0100753C0100ED3101005B
:10208000FD3101000D3201001D3201002D32010031
:102090003D3201000000000000000000F5A000003B
:1020A000F5A00000F5A00000F5A00000F5A00000DC
:1020B000000000007CB0EE877CB0EE87FF00FF00E0
:1020C000FF00FF00FF00FF00FF00FF00FF00FF0018
:1020D000FF00FF00FF00FF00FF00FF00FF00FF0008
:1020E000FF00FF00FF00FF00FF00FF0010B5064CDF
:1020F0002378002B07D1054B002B02D0044800E0C9
:1021000000BF0123237010BDC801002000000000A3
:102110008C0B0200044B10B5002B03D0034904487C
:1021200000E000BF10BDC04600000000CC01002050
:102130008C0B020070B505000E0000F09FF9041E24
:1021400014D00368DB6A9847082D10D02B00093B98
:10215000012B05D8236820005B6A9847052812DD0B
:102160001023320029000D2004F0E4FD70BD236827
:1021700020005B6A98470228F2DC236804212000D3
:102180001B6A9847ECE72368082120001B6A9847E0
:10219000E6E7C046F8B5040000F070F9051E3CD033
:1021A0000368DB6A9847022C3DD007DC002C36D050
:1021B000012C32D1280009F0CDFBF8BD032C2CD125
:1021C000280009F0B9FB13F0FFFB071C280009F0F9
:1021D000C1FB13F0F9FB061C280009F0C9FB13F042
:1021E000F3FB391C041C381C13F0E4F8311C051CEB
:1021F000301C13F0DFF8011C281C12F075FD211CA7
:10220000051C201C13F0D6F8011C281C12F06CFDD4
:1022100016F088FE13F0B8FBCFE70020CDE72800CA
:1022200009F08AFBC9E7280009F0A2FBC5E7C04610
:1022300070B5050000F022F9041E06D00368DB6AC1
:102240009847002D07D0012D01D0002070BD20003F
:1022500009F044FCFAE7200009F01AFCF6E7C04652
:1022600010B5040000F00AF9002803D0036821002B
:102270001B6A984710BDC046F0B5C646042100B59C
:10228000FF31040084B0512001F008FF0F27031133
:1022900039001F40802306005B00050001401E40FE
:1022A000184272D16A4B3A006A4808F0ADF9731EC1
:1022B0009E410F21F2B229403B0020000CF092FA1F
:1022C00000236548A36008F09FF9012103204942DB
:1022D00001F0E4FE05F0EAFC01210500494202207C
:1022E00001F0DCFE05F0E2FC0100002D00D174E0FD
:1022F000002800D171E0280005F044F9071E00D144
:1023000084E001214620494201F0C8FE0223020078
:1023100005009A43302A3AD000230125A3603B6888
:10232000019500955E6A0F230F22322138006B441D
:10233000B047002800D180E03B68019500955D6AB8
:102340000F230F22302138006B44A847002861D1A9
:102350003021424808F058F93023984601210120E5
:10236000494201F09BFE05F0A1FC050050201CF045
:1023700008F9052301934346060000932A00230031
:1023800039000BF0A3F9A66017E0354B8BE701216C
:102390000120494201F082FE05F088FC8046502071
:1023A0001CF0EFF805230600ADB20193424623006E
:1023B000390000950BF08AF9A660336830009B6AFB
:1023C0009847A0680368DB6A9847264808F01CF91C
:1023D000200004B080BCB846F0BD234808F014F9D2
:1023E00001211920494201F059FE05F05FFC01214D
:1023F00005004942182001F051FE05F057FC01008C
:10240000280005F0BFF8071E00D07AE7174808F04B
:10241000FBF8DDE7164808F0F7F8A668002ECCD1E7
:1024200001210320494201F039FE05F03FFC00285C
:102430000AD0104808F0E8F8CAE73221074808F047
:10244000E3F83223984689E70B4808F0DDF8BFE748
:10245000D0EC0100D8EC0100F8EC010034ED0100F3
:10246000C8EC0100B8ED010008ED01001CED010011
:1024700048ED01005CED010098ED010070B50E4DD6
:102480002C68002C02D0A468200070BD012101201E
:10249000494201F003FE05F009FC002807D00C209A
:1024A0001CF06FF80400FFF7E7FE2C60EBE72C68E8
:1024B000002CE9D0E7E7C046E401002010B501F0A8
:1024C00037FF15F0EDFF01F005FB10BD10B501F071
:1024D0002FFF16F0B5FA01F0FDFA10BD10B501F0AE
:1024E00027FF16F069F801F0F5FA10BD10B501F0FC
:1024F0001FFF16F055FC01F0EDFA10BD10B501F00C
:1025000017FF16F06DFA01F0E5FA10BD10B501F0F5
:102510000FFF16F01BFA01F0DDFA10BD10B501F047
:1025200007FF15F0C3F901F0D5FA10BD10B501F0A1
:10253000FFFE16F0A5F901F0CDFA10BD0830704786
:1025400003000020002B04D0002902DB5A688A42D5
:1025500000DC70475B18187AFBE7C046002806D0FD
:10256000002904DB43688B4201DD4018027270478A
:1025700003000020002B04D0002902DB5A6891429E
:1025800000DB70475B18187AFBE7C04603000120A8
:102590009A0705D1002B03D01B0F5A425341D8B2E2
:1025A0007047C046002806D0002904DB43689942E2
:1025B00001DA4018027270474068704710B5141E67
:1025C0000DDB4268A2420ADB002B00DA1300121B6B
:1025D0009A4200DD1A00083000191CF020F810BDE6
:1025E000436810B51C008B4200DD0C00002A00DAA5
:1025F0001A00191B914200DD11000830001900F08B
:10260000B7FF10BD70B50D00002B01DA43689B1AAF
:10261000002A1DDB44689918A14219DC914217DB9E
:10262000002B15D0690013D05942A94211DAAB42F0
:102630000FDD08308618002D13DB5C1B220071199A
:1026400030001BF0D9FF2A00002130191BF0E7FFF2
:1026500070BD002CFCDB2200002108301BF0DFFFE6
:10266000F6E731005A196C42701B1BF0C5FF2200BF
:10267000002130001BF0D3FFEAE7C04610B54168E7
:10268000083000F0E5FE10BDF8B5050043680020F5
:10269000590000F069FE6B68002B12DD2E0000234C
:1026A0000F27084C821D0836F15C0909615C117026
:1026B000F15C01333940615C5170696802329942C2
:1026C000F2DCF8BDC8ED010070B50400160008008A
:1026D0001D1E01DA63689D1A002E2CDB6268AB199F
:1026E000934228DCB34226DB002D24D0430022D0C5
:1026F000002801DA2B02C018290012F0C5F8081EC4
:1027000000DA48190834A41920186519844212D037
:102710002200030005E001320B0090420CD09342EE
:1027200009D0197814781170591C1C708D42F2D19F
:1027300003000132F3E770BD0800F0E70B0010B5AD
:102740001100002B0FDB4468A3420CDC5268E41A32
:10275000A24209DC002A06DB884207D00830C018F4
:1027600008311BF040FF10BD2200F3E701000831E3
:10277000C8181BF041FFF6E7030010B500200C1E3F
:1027800006DD59680833180002F08EFC1F2C00DDAE
:1027900010BD0300E34058400123A340013B184013
:1027A000F6E7C04610B50100002000F0E1FE10BDC4
:1027B00070B50021050000F077FE0100002000F058
:1027C000D7FE010004000831280000F06DFE200053
:1027D00070BDC04630B504000D00180083B0102A4B
:1027E00009D8504B92009B589F4601F027FEC0B27B
:1027F000002D00DD207003B030BD01F01FFE002D64
:10280000F9DD2070F7E701F019FE83B2012DF2DD4A
:102810001B0A60702370EEE701F010FE0090032D9C
:10282000E9DD6A46231D1178013B197001329C4293
:10283000F9D1E0E701F0A8FD0090032DDBDDA3074F
:1028400063D12060D7E701F09FFD0090032DD2DD1A
:102850006A46231D1178013B197001329C42F9D15F
:10286000C9E701F0EBFD03B2012DC4DD1B041B0E13
:1028700060702370BFE701F0E1FD0090032DDEDC06
:10288000B9E701F0DBFD6B461880012DB3DDE307EE
:1028900041D42080AFE701F0D1FD6B4680B21880B3
:1028A000012DF4DCA7E701F069FE0090032DC6DCE2
:1028B000A1E701F03DFD00900191072D9BDD08226D
:1028C000694620001BF08FFE95E701F031FD009076
:1028D0000191072D00DC8EE723006A46083311784A
:1028E000013B197001329C42F9D184E701F046FEA8
:1028F0000090032D00DC7EE76A46231D1178013B22
:10290000197001329C42F9D175E704226946200012
:102910001BF069FE6FE70222694620001BF063FE90
:1029200069E7C046DCED010010B5002A07DB44680A
:102930000830A41A80180A002100FFF74BFF10BDD1
:1029400010B582B0102A00D9CFE0694B92009B5895
:102950009F46002900DCAAE0007801F0B3F902B03C
:1029600010BD002900DCA2E0007840B2F5E70329A1
:1029700000DC9EE0830700D093E00368009300989A
:1029800001F0A0F9EBE76C46012900DCA5E04378F3
:10299000237003786370208801F094F9DFE76A46BA
:1029A000031D032900DC84E0013B1978117001321A
:1029B0009842F9D1E3E7032900DC94E0830769D169
:1029C00000680BE06A46031D032900DC88E0013B38
:1029D0001978117001329842F9D1009801F080F90C
:1029E000BDE76C4601296ADD437823700378637084
:1029F0000023E05EB1E703295EDD830744D103686D
:102A00000093009801F058F9A9E7082207295FDD33
:102A1000010068461BF0E7FD0098019901F05AF8A3
:102A20009DE703006C46083307294BDD013B1A780C
:102A3000227001349842F9D1EEE76A46031D03295A
:102A40003ADD013B1978117001329842F9D1D8E78B
:102A50006C46012933DDC30710D403882380C7E700
:102A6000012924DDC30701D4008876E70100022292
:102A700068461BF0B8FD6B4618886EE7010002221D
:102A800020001BF0B0FDB3E70100042268461BF0F4
:102A9000AAFDB6E70100042268461BF0A4FD0098D9
:102AA0009CE70100042268461BF09DFD67E70020BB
:102AB00053E70023009362E700230093A1E700237C
:102AC000238095E70822002120001BF0A8FDA3E742
:102AD000002168461BF0A3FD9EE7002323805AE7F0
:102AE0000023009379E7002078E7002037E7C0460D
:102AF00020EE010010B5002A08DB436808309B1A5D
:102B000080180A001900FFF71BFF10BD002001F01C
:102B1000D9F8FAE710B504F02DF810BD10B504F09F
:102B20002DF88000800810BD10B504F003F910BD29
:102B300010B507F0B1FA10BD10B5C11703F084FF4E
:102B400010BDC04610B503F093FF10BD10B503F0E3
:102B50009FFF10BD00B583B004F008F8009001910C
:102B60000821684602F0A0FA8000800803B000BD8A
:102B700000B583B003F0FAFF009001910821684688
:102B800000F0F6FC03B000BD70B50C1E0CD00B6855
:102B900008001B6A9847236805005B6A2000984775
:102BA0000100280005F07AFC70BDC04610B502F0A7
:102BB00001F910BD10B5012002F034FE10BDC04671
:102BC00010B5022002F02EFE014803F03FFE10BDBA
:102BD00093030000014B18607047C046E8010020D5
:102BE0007047C0460020704702000023D35600788B
:102BF000002B08DA1F2301009943C02911D0F023CC
:102C00000340E02B00D07047FC2351781B01890161
:102C1000194003073F2092781B0C0B4310401843C8
:102C2000F1E78301F820C00003403F2052781040B4
:102C30001843E8E77047C04680880A30800870472C
:102C4000063070478088704783888B4202D30630F5
:102C5000401870470020FCE780880A3080087047E1
:102C6000063070478088704703207047C3888068AB
:102C70001B095B00C018704780887047C088704788
:102C800040680B308008704710B58068002801D07C
:102C900002F0A0FB10BDC04610B50400406802F071
:102CA000BFFBA06802F0BCFB10BDC046032070470C
:102CB000032070477047C046808870477047C04601
:102CC000F0B54546DE4657464E46E0B5050083B0B2
:102CD000002A00DC20E1802464420020A4469F34C6
:102CE0000023A0460190CE56CC5C002E33DA26009D
:102CF00040468643F6B2C02E52D026000F208643AF
:102D0000F6B2E02E32D19E1C964247DA3F26C81812
:102D1000824640788146B0435E1C802800D1BAE0EC
:102D20003300019802300190002D0AD04020A609FE
:102D3000404206437F300440604604432E706C706E
:102D400002359342CFDB019803B0F0BCBB46B246DC
:102D5000A946A046F0BD01337F2CE2D8019801308E
:102D60000190002DEDD02C700135EAE726000720F8
:102D70008643F6B2F02E11D1DE1C96420EDAC81848
:102D8000467881463F273000B843802806D1484620
:102D90003F2780788246B843802825D05E1CBFE755
:102DA0005E1C9642BCDA3F27C81840788146B8437B
:102DB0008028B5D1A0018246F820C0008346504645
:102DC0005F46384082463F27484638408146504655
:102DD0004F4638437F2800DD9BE0019B023301937F
:102DE0003300002DA2D17EE748463F27C0788346B6
:102DF000B8438028D2D1E027A0047F033840814621
:102E00003F2758463840834648465F463843814608
:102E1000FC20360380020640484630438146504637
:102E20008601FC2000010640484606433B48814697
:102E30008020B14440035E1C814500D370E70198B7
:102E4000043306300190002D00D17AE74846840A09
:102E5000D820000282463F265444A00930406646EE
:102E6000304368703F20044048463443AC708405CA
:102E7000DC2000028146ED276046A40D4C442F70F3
:102E8000EF70A609AE3F3E403C40064304432E711E
:102E90006C71063555E750463F2780788246B84327
:102EA000802800D03CE72007000C8346504638407D
:102EB00082465846574638438246484680018146F6
:102EC000FC200001834648465F4638408146504614
:102ED0004F463843814680200001814500DA1FE7D4
:102EE0000198033303300190002D00D129E74846B3
:102EF0002024060B644234433F262C70840960462C
:102F0000344004436C704C4634400443AC70033589
:102F100017E70400023304E7002015E70000FFFF75
:102F2000F0B557464E46DE464546E0B5836883B069
:102F30009A460190C78883883F097F009946BA4422
:102F4000002903D01A0050461BF04DFB00235246C7
:102F500049465354019BDB881B09984635D050469F
:102F6000002400234A46D51A1DD40F261021002321
:102F7000B346027807E001339D4214DB0139C25C9D
:102F8000C718002917D057B2002FF4DA17001F26F0
:102F9000B743C02F0DD05E46B243E02AEBD10233D7
:102FA00001339D42EADADC20800003F04FFC002070
:102FB00002E00133DFE73800534601996200896877
:102FC000C31A01345352A045CCDC03B0F0BCBB465D
:102FD000B246A946A046F0BDF0B54E464546DE468F
:102FE0005746E0B54A4D8146A98883B0002900D0F4
:102FF0007FE04A46280003F0CDF8AB889846002BC6
:1030000000D180E0434B0027984600260AE09B6AE7
:103010009847236836185B6A20009847AB883F18AA
:10302000002B13D0280003F0C9F8036804004345BF
:10303000EDD18268A988280003F0ACF82800626806
:10304000A98803F0A7F8AB88002BEBD1BBB23409F9
:1030500098466400781CB3B20019019302F08EFD0B
:103060008346A9885C442700002947D14A462800A6
:1030700003F090F8AB88002B26D0264B9A460FE041
:103080005B6A9847236806001B6A20009847320055
:10309000010038001BF0A7FAAB88BF19002B13D032
:1030A000280003F08BF8036804005345E8D18268D8
:1030B000A988280003F06EF828006268A98803F048
:1030C00069F8AB88002BEBD14A46134B0021136003
:1030D0004B4642469A80019A4846DA805A469A60A0
:1030E000FFF71EFF03B0F0BCBB46B246A946A046A0
:1030F000F0BD0A4803F0AAFBA9887AE7074803F065
:10310000A5FBA988B2E70023012000240193A5E7CD
:10311000F00100202CEF01005CEF010071030000C2
:1031200010B50400FFF758FFE08810BD10B504008B
:10313000FFF752FFA08810BD10B50400FFF74CFF49
:10314000E388A0681B095B00C01810BDF0B5858836
:10315000811D0020002D16D000231F260F2702E01E
:1031600001339D420FDDCC56CA5C0130002CF7DAEA
:103170001400B443C02C07D0BA43E02AF0D1023384
:1031800001339D42EFDCF0BD0133E9E7F0B5851D69
:1031900086880F20002200231F27844602E0013387
:1031A0009E4213DB0132EC5CE81891420FDB60B207
:1031B0000028F4DA2000B843C02809D060468443D0
:1031C000E02CECD1023301339E42EBDA0020F0BD5B
:1031D0000133E4E7F0B5C588A94223D882682D09F8
:1031E0006D00868855190F2920D80F200022002352
:1031F0001F27844602E001339E4213DB0132EC5C60
:10320000E81891420FDB60B20028F4DA2000B843DE
:10321000C02809D060468443E02CECD1023301334E
:103220009E42EBDA0020F0BD0133E4E705480B09CC
:10323000844663445B009B5AF61AED180F23B6B21E
:103240001940D2E7FFFFFF7FF8B504000E00FFF73B
:10325000C3FEE588AE4223D8A2682D096D00A1887F
:1032600055190F2E20D80F20002200231F27844637
:1032700002E00133994213DB0132EC5CE81896421C
:103280000FDB60B20028F4DA2000B843C02809D070
:1032900060468443E02CECD1023301339942EBDAEF
:1032A0000020F8BD0133E4E7054833098446634450
:1032B0005B009B5AC91AED180F2389B21E40D2E752
:1032C000FFFFFF7F00280ED043688B4201D0002B08
:1032D00006D1531C07D08368934204D0002B02D040
:1032E00000680028F0D170470A4B020018680028D7
:1032F0000ED043689A4201D0002B06D14B1C07D058
:103300008368994204D0002B02D000680028F0D1D5
:103310007047C046EC010020F0B5C646114B0400D2
:103320000D001600984600B51B68002B09D05A689E
:10333000A242F9D19A68AA42F6D1DE6080BCB846B2
:10334000F0BD102002F02CFC43461B680700036010
:1033500044608560C66001210C3002F0DFFC43460A
:103360001F60EBE7EC010020F8B505000C1E0BDB3D
:1033700000290DD000280ED1C81D02F03BFB304BB8
:1033800006000360848019E01BF089F9041E02D155
:103390002C4E3000F8BD0023EA5C7F2A12D801339E
:1033A000A342F9DB264FE01D02F024FB22000600B9
:1033B00007608480290006301BF015F900233419BA
:1033C000A371E6E7132C37DD0C2002F013FB1E4B34
:1033D000060003600023836002F0BCFC0F21002282
:1033E00000231F278C46B48002E00133A34210DA89
:1033F000E856E95C01320028F7DA0800B843C02833
:103400001CD060468143E029EFD102330133A3424F
:10341000EEDB002392B2F280120950000134B36057
:10342000001902F0ABFB2900B0603000FFF778FD17
:10343000300002F09FFCACE7044FB4E70133D4E75F
:10344000BCEF010078F001005CEF01008CEF01009F
:10345000F8B505000C1E02DA1BF021F90400002C5F
:1034600002D1104C2000F8BD220029000020FFF7F7
:1034700027FC060084420FD002F092FB07002200D6
:103480002900FFF71DFC31003800FFF76DFF040035
:10349000380002F09BFAE5E721002800FFF764FFFF
:1034A0000400DFE778F00100F8B5DE4657464E46E7
:1034B000454603680400E0B51B6A884698472368C0
:1034C00006005B6A20009847071E11D08023DB00AE
:1034D000002400259B46335D3019ED2B0FD042466A
:1034E000002A00D0535501350134BC42F3D32F00DC
:1034F0003800F0BCBB46B246A946A046F8BD621DE6
:103500009246BA42EBD2FFF76FFB174B99468144C4
:10351000D945E9D2E01C3018FFF766FB134BC318FE
:103520005B45E1D24346002B1BD090224B469201D3
:10353000944610229B02634418188314524213438A
:1035400042463F21802453555319021364420A40D6
:1035500022435A7082110A400840224320439A7045
:10356000D87054460435BFE70028FFFF0024FFFF52
:1035700070B506000C1E10DD0800083002F03AFAA3
:10358000094B0500220003604460002E07D0310083
:1035900008301BF028F8280070BD044DFBE700211F
:1035A00008301BF03CF8F6E7ECEF01006CF001008E
:1035B000014B18607047C046B8000020020043016C
:1035C0001B189B011B189B001B18D802C31A5B0019
:1035D0009B1AD800C01A0449C300181A40000B688F
:1035E0008018584008607047B80000200F4BF0B5B5
:1035F0009C46050001241F682A000020BE09FB0F1D
:1036000073407B403E0979087340BF087B404B40C4
:10361000DF0723000F4340003B4018435208EDD121
:103620008542E9D363461F60F0BDC046B800002064
:103630000048704778F0010010B5184A030482B0C2
:103640001B0C104206D1012101A80370FFF78CFE6C
:1036500002B010BDF822120210420DD14022991181
:1036600052420A4301A802703F221A4080235B4263
:10367000134302214370E9E72022191352420A43FF
:103680003F24802101A802709A1149422240234020
:103690000A431943817042700321D7E780FF00007D
:1036A000F0B5D6464F46464604000D00C0B500288A
:1036B0006CD0454B002947D00E0098423ED02600E2
:1036C0009D423BD02768414B9A46BB4244D07B6A1F
:1036D000200098472B6807005B6A28009847B84687
:1036E0008146C8444346322B47D8236820001B6AD2
:1036F00098472B6882461B6A280098474146050078
:103700000020FFF731FE036806001B6A984704009B
:103710003A0051461AF067FF4A462900E0191AF0AC
:1037200062FF4346002B09D0191902E00134A1427F
:1037300004D023787F2BF9D9254B33603000E0BCCF
:10374000BA46B146A846F0BD984224D01F4B076840
:103750009A46204DBB42BAD12B689F420DD0A0683B
:1037600003689F4209D05B6A98472B6806005B6A32
:10377000280098478019322813D90C2002F03AF912
:1037800053460600036044608560D7E7002904D0F3
:10379000104C0D4B93E70F4ED0E70E4C0E4F25000B
:1037A00091E70C2002F026F90600076002F0D2FA39
:1037B000636829007360A068FFF772FFB060300093
:1037C00002F0D8FABAE7C04678F001002CEF010009
:1037D0008CEF0100CCF0010040505854F0B5C646C3
:1037E00005000C0000B5884224D003685B6A984746
:1037F000236880465B6A200098472B6807001B6A95
:1038000028009847236806001B6A20009847474510
:103810000BD80024335D055DAB4208D0AB429B4121
:103820000120184380BCB846F0BD4746F1E701349B
:10383000A742EFD20020F5E710B503689B6A9847CE
:1038400010BDC046F0B54646DE4657468846C0B570
:103850007F22060082B037783B00093B042B5DD9FC
:1038600013003B40202B59D02B2F01D17778013604
:103870002D2F00D175E00023404C00930194002FC0
:1038800000D178E00022002393460024002521E0A7
:1038900000223B4B2000290013F064F804000D00C7
:1038A000504613F0B3FE22002B0012F01DF95A46C9
:1038B00004000D000123002A08D000980199304B24
:1038C000002212F04DFC5B460090019177780136A2
:1038D000002F11D0302252429246BA445246092A51
:1038E000D6D95A46002A1BD12E2F19D1012277781A
:1038F00001369346002FEDD12200009801992B004C
:1039000013F030F804000D0043461E60200029002B
:1039100002B0E0BCBB46B246A846F0BD01369AE70D
:10392000002B25D0009801992B00220013F01AF8E3
:10393000202304000D009F43452FE5D10A22414674
:10394000701C1AF0F5FD0E490200002011F068F815
:1039500002000B002000290013F004F804000D0001
:10396000D4E70023074C777800930194013686E76B
:103970000024054DCAE700240025BDE70000F03F04
:10398000000024400000F0BF0000F87FF8B50700F9
:103990000C00161E1CDD03689B6A98470500002C6E
:1039A0001BDB2D1BB54215DC002D11DD3B68210012
:1039B000DB6A380098473B6861190600DB6A38000B
:1039C0009847041E11D03000A11BFFF7CDFC00E08A
:1039D0000848F8BD351EE9DCFAE72418E343DB1795
:1039E0001C402D1BB542DFDDF4E7034802F02EFF3B
:1039F000E9E7C04678F0010072030000F8B54746D9
:103A0000CE46050080B514000F0000284ED00029D6
:103A10004CD003681B6A9847E14380462B68C9175E
:103A200021402800DB6A98474346C61A2B680400E9
:103A30005B6A280098473B68861B5B6A380098479A
:103A40000500002C32D0864230D33B6838001B6A18
:103A50009847A6198146077803E00134331BAB422F
:103A600024D32378BB42F8D12A00494620001AF01B
:103A7000ACFD0028F1D14346E41A002C18DD0023E8
:103A80001F250F2602E001339C4211DD41464246CC
:103A9000C956D25C01300029F5DA1100A943C029CA
:103AA0000AD0B243E02AEED10233ECE701204042D3
:103AB000C0BCB946B046F8BD0133E4E710B5FFF726
:103AC0009DFF0130431E984110BDC0460123584060
:103AD0007047C04670B50A0005000C1E11D10028C1
:103AE0004ED02A0023002800210013F03BFD0028BF
:103AF00048D10C3001F07EFF234B456003608460A9
:103B000070BD4B0021495B0D59181D2917D8142988
:103B10001EDC1F48844620006344984003002B436A
:103B2000DFD18020E40200061F332043591AC84029
:103B3000002A21DA0123404240001843E0E71E2911
:103B4000CFD10028CDD1134B9C42CAD11248D7E720
:103B500012488446280063449840031EC1D1802047
:103B6000E40200061F335B1A2043D8403423591A5D
:103B7000CD402843002ADDDB012340001843BFE786
:103B80000120BDE70E20BBE71CF0010001FCFFFF98
:103B90000DFCFFFF0000D0C101000080EDFBFFFF26
:103BA00070B5036882B01B6A984701A9FFF74AFE07
:103BB00004000D00002200232000290010F07AFEEE
:103BC00000280CD101226E00760820003100154B30
:103BD000524213F0C7FC002807D00024124D2000E9
:103BE0002900FFF777FF02B070BD012220003100ED
:103BF0000C4B524210F078FE0028EED180230022B8
:103C0000200031005B0313F0ADFC0028E5D18023D8
:103C10000022200031005B0310F052FE0028DED0AD
:103C2000DBE7C046FFFFEF7F0000F87F036870B559
:103C3000DB6A04009847051E13D0FEF7D5FF002865
:103C400011D1236820001B6A9847236806005B6A2D
:103C5000200098473618B54203D0002301201843AE
:103C600070BD0E20FCE743005A109042F6D013F0CE
:103C7000CDFCFFF72FFFF3E710B5002802D0FFF7C8
:103C8000D5FF10BD0E20FCE710B500280AD0FFF7C5
:103C9000CDFF04000E2805D0C30705D56010FFF73F
:103CA000CBFC00E0024810BD024802F0CFFDF5E772
:103CB00078F001007103000010B513F0FDFCFFF770
:103CC00009FF10BD430010B55A10904204D013F004
:103CD0009DFCFFF7FFFE10BD01201843FBE7C04627
:103CE000802310B5DB05984203D20123400018431E
:103CF00010BD13F0BBFCFFF7EDFEF9E7431E984142
:103D00004342382018400A307047C046F0B54E464E
:103D10004546DE465746E0B50023160083B0002234
:103D200005000C0010F0CCFD002806D02D233370C8
:103D300080231B069C460136644400220023280091
:103D4000210010F0B7FD00280AD030233370002383
:103D5000737003B0F0BCBB46B246A946A046F0BDA6
:103D60002800210014F01CFF13F01AFC21008046EB
:103D7000834A2800834B10F0A3FD002807D12800B8
:103D80002100814A814B10F0AFFD002877D04346D7
:103D9000002B00DA9BE0424600207D4910F040FEF7
:103DA00002000B002800210012F0DAF9794A7A4B60
:103DB00012F0D8FD794B002211F096FE10F0AAFE09
:103DC00001235B429B4602330193002304000D0054
:103DD0009A462E27724A73490123BC4672486832BC
:103DE000A9421CD8A94246D03027241A8D41013758
:103DF000A94202D8F9D1A042F7D9F9B23170210015
:103E0000771C294311D10199994216DD0F2B14D04B
:103E1000106851683E00083A0133A942E2D93021C6
:103E200031702100771C2943EDD001998B42EDD1EF
:103E30006146B71C71700F2BEAD15346002B0AD094
:103E40005B46DC43E4171C4001343800220030217B
:103E50001AF0E5FB3F194346012B35D065233B7033
:103E60004346791C002B02DD2B23B91C7B70404696
:103E700006F0AAF96DE7A042B6D93021D0E7434653
:103E80005F1C01970E2B43DD0E235B4243441A0057
:103E900000203F499A4610F0C3FD02000B002800A5
:103EA000210012F05DF900223C4B11F01DFE10F0D4
:103EB00031FE04000D00002F13DD0F235B4243444D
:103EC0009B460123984684E700233B7041E75A4212
:103ED00000202F4910F0A4FD2A00230012F042FD1B
:103EE00064E730233370B31C99462E237370434626
:103EF000DE430F235B4243449B46013E01363200C2
:103F0000302148461AF08BFB01234E44984660E767
:103F10000E220020D21A1E4910F082FD02000B0072
:103F20002800210012F01EFD1C4B002211F0DCFDC8
:103F300010F0F0FD019B04000D00002B18DC302375
:103F40003370B31C99462E2373704346DB439A4665
:103F50005E1E002B05D001235B429B4600239A4640
:103F6000CCE701235B429B4602334E46984630E73E
:103F700001235B429B460233984600239A4628E77A
:103F80008DEDB5A0F7C6B03E50EFE2D6E41A4B4433
:103F9000000024400000901EC4BCD6420000E03F58
:103FA00050EB0100F35A000000407A10012070B578
:103FB0004042FFF71BFB04000E48FFF717FB06000B
:103FC000200013F053FB00220B4B12F0CBFC04003B
:103FD00030000D0013F04AFB084A094B12F0C0F8FC
:103FE00002000B002000290011F07EFDFFF772FD9A
:103FF00070BDC046FFFFFF000000F03D0000E0DFA5
:10400000FFFF6F434843704710B510F057FB10BDDA
:1040100010B50C2001F0EEFC040002F0D3F92000F2
:1040200010BDC0460089704710B5043002F03EF95B
:1040300010BDC04610B50A000189043002F01CF919
:1040400010BDC04610B5043002F03EF910BDC046A8
:104050000389994203D243688900C85870470020F9
:10406000FCE7C04610B5043002F006F910BDC046AA
:1040700010B5043002F038F910BDC04610B5043058
:1040800002F052F910BDC046024B1B68588CC000AC
:104090007047C046300200207047C0461C4B70B5C8
:1040A0001B6804000D00002B0FD0596A00290CD0AA
:1040B0000B6800209C4206D124E0821C9300CB5860
:1040C000A34217D01000002BF7D104F0CFF8060060
:1040D0002800002E0DD0336800219C4206D114E048
:1040E0008A1C9300F358A34208D01100002BF7D18B
:1040F000280070BD033080000858FAE703318900BA
:104100007058F6E704300858F3E704317058F0E7C8
:1041100030020020406870474160704710B50820A9
:1041200001F068FC040002F055F9200010BDC04603
:1041300070B505000C00160000290ADB838899423F
:1041400007DAA4002C19E368002B0BD12800E660E5
:1041500070BDA4000A2106482C1902F095F9E36805
:10416000002BF3D00B21024802F08EF9EEE7C04697
:104170008603000010B502F069FB10BD002805D0D1
:10418000034BC31A5A1E93415B4218407047C04606
:1041900078F00100431E98417047C04610B51420C6
:1041A00001F028FC040002F01DF9200010BDC046FB
:1041B00010B5040002F020F9002806DB238A98429B
:1041C00003D2E3688000C05810BD0020FCE7C04661
:1041D0001E4BF0B51B68C646DB6A07001A009B68D9
:1041E00020CA00B59046013D98421AD3AB009B58B7
:1041F000984216D8002D0FDD012202E0621CAA426F
:104200000ADC414654196410A3005B589F4204D055
:10421000F4D8651EAA42F4DD0024200080BCB84614
:10422000F0BD002DF8DD012602E0651EB542F3DB8E
:104230004246AC196410A30039009858FFF7CEFA33
:104240000028EAD0F1DA661CF0E7C0463002002010
:104250000A4B01311B688900DB6A10B5C95804009C
:1042600002F0CAF8002806DB238A984203D2E368EA
:104270008000C05810BD0020FCE7C046300200207E
:1042800070B50D000400160002F0B6F8011E05DB43
:10429000200032000C3001F0EFFF70BD2A002189B0
:1042A000201D01F0E9FF20003200218A0C3001F0CE
:1042B000E3FFF2E7044B10B51B680131DB6A8900AC
:1042C000C958FFF7DDFF10BD30020020014B186810
:1042D0007047C0462C0200207047C04610B58307C7
:1042E0000AD100281BD00122036804249343DA7802
:1042F000F92A12D0200010BD002810D0C30710D416
:104300000E280ED042280ED00A280CD004240628ED
:10431000F0D0064802F09AFAECE79C78EAE700242D
:10432000E8E70224E6E70124E4E7C04621030000B1
:1043300070B504000E281FD000281DD0830711D1AE
:104340002000FFF7CBFF0500022818D0032813D167
:104350002000FFF725FC04000E280DD0002C0BD008
:104360002C42EDD0200000F00FF813F04FF90200BE
:104370000B001000190070BD0022024BF9E76268C3
:10438000A368F6E70000F87F70B5C30701D54010B9
:1043900070BD830703D58011431E9841F8E70028BC
:1043A00046D0FFF7C5FF012204004D006D080E0046
:1043B000200029001F4B524213F0D4F8002837D1B7
:1043C0000122200029001B4B524210F08DFA0028D8
:1043D0002ED180230022200029005B0313F0C2F8B5
:1043E000002825D180230022200029005B0310F043
:1043F00067FA00281CD12000310014F05FF9002278
:104400000D4B14F05DFB0022002304000D0010F0A2
:1044100057FA002807D0200029000022064B11F08F
:1044200063FB04000D002000290010F055FBAFE7EE
:104430000020ADE7FFFFEF7F0000F04110B5FFF770
:10444000A3FF10BD70B50D00FFF79EFF040028000C
:10445000FFF79AFF1F2303402000984043005A10A3
:10446000904204D013F0D2F8FFF734FB70BD012066
:104470001843FBE770B50D00FFF786FF0400280026
:10448000FFF782FF1F2303402000184143005A100A
:10449000904204D013F0BAF8FFF71CFB70BD012066
:1044A0001843FBE770B50D00FFF76EFF040028000E
:1044B000FFF76AFF604043005A10904204D013F0A7
:1044C000A5F8FFF707FB70BD01201843FBE7C046C6
:1044D00070B50D00FFF758FF04002800FFF754FFE8
:1044E000204343005A10904204D013F08FF8FFF796
:1044F000F1FA70BD01201843FBE7C04610B5FFF785
:1045000043FFC04343005A10904204D013F07EF89A
:10451000FFF7E0FA10BD01201843FBE770B50D006E
:10452000FFF732FF04002800FFF72EFF2040430072
:104530005A10904204D013F069F8FFF7CBFA70BD1F
:1045400001201843FBE7C04670B50D00FFF71CFFC4
:1045500004002800FFF718FF1F2303402000D84065
:104560008023DB05984203D201234000184370BD2D
:1045700013F07CF8FFF7AEFAF9E7C04610B50E2845
:104580000DD000280BD0830704D1FFF7D1FE13F024
:10459000DBF810BDFFF7F8FE11F016FAF9E7014855
:1045A000F7E7C0460000C07F70B50E00FFF7C0FE01
:1045B000040030000D00FFF7BBFE02000B002000DE
:1045C000290011F091FAFFF785FA70BD70B50E0061
:1045D000FFF7AEFE040030000D00FFF7A9FE020059
:1045E0000B002000290012F02BFCFFF773FA70BDBE
:1045F0000B00D0B5012603400C001E4203D0C313AC
:104600000133012B0FD9FFF793FE060020000F00A6
:10461000FFF78EFE02000B003000390012F0A2F905
:10462000FFF758FAD0BDCB130133012BEBD8431061
:104630004810584342005310984204D012F0E6FF4D
:10464000FFF748FAEEE732431000EBE770B50E00D3
:10465000FFF76EFE040030000D00FFF769FE020058
:104660000B002000290011F07BFDFFF733FA70BD2D
:10467000D0B501260C00304201D031420FD1FFF7F6
:1046800057FE060020000F00FFF752FE02000B004D
:104690003000390014F014FAFFF71CFAD0BD4B10AB
:1046A000EDD0FFF771FE07002000FFF76DFE01005F
:1046B000380010F0E9F84B0008005A10914204D07D
:1046C00012F0A4FFFFF706FAE8E733431800E5E726
:1046D00070B50E00FFF72CFE040030000D00FFF750
:1046E00027FE02000B002000290014F097FAFFF7C4
:1046F000F1F970BDF0B5CE464746012380B50E00F6
:1047000083B0184209D0194207D042104E10964289
:1047100062DB5ED1984318431CE0FFF709FE0400FA
:1047200030000D00FFF704FE06000F0002000B0032
:104730002000290010F0D8F8002816D132003B00E4
:104740002000290010F0B6F8002808D02000290029
:10475000FFF7C0F903B0C0BCB946B046F0BD3200A7
:104760003B0026002F0014001D0001204042FEF7F0
:104770003DFF81462048FEF739FF8046484612F04B
:1047800075FF00221D4B12F0EDF80090019140469C
:1047900012F06CFF1A4A1B4B11F0E2FC02000B00F6
:1047A0000098019911F0A0F93200009001913B00AE
:1047B0002000290012F044FB02000B000098019930
:1047C00012F0D0F832003B0011F08EF9FFF782F9B9
:1047D000C0E7330016001A00901BFEF707FF3018E1
:1047E00043005A10904204D012F010FFFFF772F904
:1047F000B0E701201843ADE7FFFFFF000000F03DE8
:104800000000E0DFFFFF6F4310B5FFF791FD14F0EC
:1048100089F9FFF75FF910BD10B5FFF789FD14F0B6
:10482000BFF9FFF757F910BD10B5FFF781FD13F081
:1048300067FBFFF74FF910BD10B5FFF779FD13F0D7
:1048400077FAFFF747F910BD10B5FFF771FD13F0C8
:1048500035FFFFF73FF910BD10B5FFF769FD0022E6
:10486000034B11F041F913F04BFBFFF733F910BD87
:104870000000E03F70B5030090B082070DD1002822
:1048800047D0012102688A43D078F92816D00A2B34
:1048900068D00E2B40D138483CE0002839D0C20700
:1048A00041D40E28F7D0422847D00A285AD00628EB
:1048B00037D0324801F0CAFF31482BE09278180017
:1048C000032A27D0022A51D10B422CD10E2BE2D041
:1048D000FFF72EFD01224E0076080D00294B310016
:1048E0005242040012F03EFE002828D1012220008E
:1048F0003100244B52420FF0EDFF00281FD100225F
:104900000023200029000FF0DBFF00282CD11E48D7
:1049100000E01E4810B070BD1D48422BFAD0062B97
:1049200028D11C48F6E76946581005F04DFC0121D6
:1049300068464942FEF718FDECE71548EAE7220011
:104940002B002000290012F00DFE0028A3D120002A
:1049500029006A46FFF7DAF9012168464942FEF765
:1049600003FDD7E70C48D5E70C48D3E70C48052AE8
:10497000D0D08CE70248CDE7B0F001002103000061
:10498000F0F00100FFFFEF7FA0F001005CF00100FC
:10499000D8F00100CCF00100E4F00100BCF001000F
:1049A00000F10100F8B504000D000E2807D00E2913
:1049B00005D0884226D00B000340DB0701D500203C
:1049C000F8BDFFF78BFC06002800FFF787FC864246
:1049D000F5D123002B439B07F1D1032E14D0022ED7
:1049E000EDD12000FFF7A4FC060028000F00FFF720
:1049F0009FFC0B000200390030000FF05BFF431EEC
:104A00009841DDE70120DBE729002000FEF7E6FE04
:104A100043425841C0B2D3E710B5FFF7C3FF431E6E
:104A200098414342382018400A3010BD10B5FFF7B6
:104A3000B9FF434258414342382018400A3010BD64
:104A4000F8B505000C000E2828D00E2926D006281F
:104A500061D042283FD00A2833D00200062900D175
:104A600070E0422C32D023000A2C36D09A4230D04B
:104A700023002B40DB0711D42800FFF72FFC060092
:104A80002000FFF72BFC0300032E09D003282FD0B2
:104A9000012E46D0012822D09E4205D00020F8BD2C
:104AA000022827D00328F5D12B0023439B07F5D1FB
:104AB000032E4BD0022E1DD0601B43425841C0B282
:104AC000EDE70122062CD7D0422CCCD103239A4209
:104AD000CED10120E3E70322F4E70123C6E7062C49
:104AE0003CD0422CDAD002230A2CD5D1093CD3E7A2
:104AF000022E1FD12800FFF71BFC060020000F002C
:104B0000FFF716FC0B000200390030000FF0D2FE58
:104B1000431E9841C3E70629DBD04229A8D00022D2
:104B2000A1E7062D0BD00226422D0DD00A2DB1D1C2
:104B3000093DAFE7012EB1D1062DF4D1AEE7022633
:104B40000025A7E7002391E70325A3E7210028001C
:104B5000FEF744FE43425841C0B2A0E702230024BE
:104B60009AE7C04610B5FFF76BFF10BD10B5FFF711
:104B700067FF431E98414342382018400A3010BD59
:104B800010B5FFF75DFF43425841434238201840BB
:104B90000A3010BDF8B506890D004768002E0DD00B
:104BA000002402E00134A64208D9A3002900F858E5
:104BB000FFF746FF0028F5D0200001E00120404229
:104BC000F8BDC046F8B54746CE4680B5436807896C
:104BD00081460E009846002F12D0002502E00135D4
:104BE000AF420DD94246AB003100D058FFF728FF45
:104BF000041EF4D048462900043001F075FB00E0A3
:104C000000242000C0BCB946B046F8BD70B5040011
:104C1000830709D1002826D0FFF760FB032824D0A2
:104C200002280DD001200AE00A281CD000281AD042
:104C30000E2818D0062816D00138431E984170BDA2
:104C40002000FFF775FB02000B0004000D0012F0BE
:104C500089FC002807D100220023200029000FF042
:104C600029FE0028DED00020E9E70248201A431E72
:104C70009841E4E778F00100F8B504000D000E2833
:104C800037D00E2935D0FFF729FB06002800FFF7A3
:104C900025FB032E24D0AC4229D02000FFF748FB8F
:104CA000060028000F00FFF743FB04000D00020080
:104CB0000B003000390012F055FC002819D12200F9
:104CC0002B00300039000FF0FBFD002814D12B0021
:104CD0002200300039000FF007FE431E9841F8BD56
:104CE0000328D8D129002000FEF778FDF7E700203F
:104CF000F5E702204042F2E701204042EFE7C046DC
:104D000001220B0010B5140003401C401A4207D0CA
:104D10000124884202DAE4B2200010BD0024FAE740
:104D2000FFF7AAFF831CF7D0C40FF5E70B00034081
:104D300010B5DB0703D5884207DD0A2010BDFFF759
:104D40009BFF831CF9D00028F7DC4220F6E7C04621
:104D50000B00034010B5DB0703D5884207DB0A20B0
:104D600010BDFFF789FF831CF9D00028F7DA422035
:104D7000F6E7C0460B00034010B5DB0703D58842B9
:104D800005DB422010BDFFF777FF0028F9DA0A2083
:104D9000F8E7C0460B00034010B5DB0703D5884297
:104DA00005DD422010BDFFF767FF0028F9DC0A206F
:104DB000F8E7C04670B50400FFF790FA042813D155
:104DC000002C0CD0A3070AD1216801230A009A43C2
:104DD00053691948834222D02000984703E02100FC
:104DE000164805F011FC70BD2000FFF743FD0500DB
:104DF0002000FFF773FA052817D8114A8000805861
:104E000003681B6A98472B6806001B6A28009847AE
:104E10002200030031000B4805F0F6FBE3E713889E
:104E20000948128905F0F0FBDDE7084801F00EFDA6
:104E300000231B68FFDEC046B54D000064EE010094
:104E400014EF010090EE010070EE0100220300005B
:104E500070B50400422815D00A2828D0830709D04D
:104E6000002824D00E2822D0062820D00138431E46
:104E700098411DE000281AD0FFF730FA032818D017
:104E8000022801D0012013E02000FFF751FA0200B0
:104E90000B0004000D0012F065FB002807D1002272
:104EA0000023200029000FF005FD0028EAD0002093
:104EB00070BD0248201A431E9841F9E778F00100BE
:104EC00010B5830709D1002820D00122036893433D
:104ED000DA78F92A12D0124810BD002816D0C3077C
:104EE00016D40E2814D0422814D00A2812D006282E
:104EF000F1D00C4801F0AAFC0948EDE79B78052B9E
:104F00000AD9094801F0A2FC0020E5E70748E3E7D9
:104F10000748E1E70748DFE7074A9B009858DBE7C7
:104F200024F10100210300002203000090F00100A1
:104F300014F101004CF0010014EF010010B50A005B
:104F400004000100114805F05FFB002C0BD0A30703
:104F500005D1012321689943CB78F92B0DD0062C7C
:104F600001D10B4806E02000FFF7B8F9F5239B00BC
:104F70009C46604401F06AFC10BD0B898A780548A4
:104F800005F042FB062CECD0EDE7C046A0EE010098
:104F9000DD030000C0EE0100010010B5034805F07C
:104FA00033FBE420800001F051FC10BDE0EE010075
:104FB00010B501F0E7FD0400102000F0F1FD2369B9
:104FC0000360206110BDC04670B501F0DBFD0569CE
:104FD0000400002D05D02B682800236100F0F6FCAA
:104FE00070BD024801F032FCF5E7C04653030000F3
:104FF000F0B5C64600B584B0804601F0C3FD046933
:105000000500002C17D06E46236822002B61330068
:1050100083CA83C3126820001A6000F0D7FC43469D
:105020006B610A4B29001B6830009B6B984704B0EA
:1050300080BCB846F0BD064805F0E6FA4046FFF7EA
:10504000B9FE044801F002FCDDE7C0463002002052
:10505000F8EE0100E703000010B501F093FD122304
:1050600044694361122C01D0200010BD014801F0B9
:10507000EDFBF9E75303000010B501F083FD436930
:10508000122B09D001F07EFD122344694361122CDA
:1050900003D02000FFF7ACFF10BD024801F0D6FBA3
:1050A000F7E7C04653030000002912D00200411860
:1050B000094803041B185B001B18DB001B18DB00EE
:1050C0001B185B0018181378013258408A42F0D13F
:1050D00070470148FCE7C046C59D1C81032370B59D
:1050E000046805009C4310D0A30F11D02501AD0921
:1050F000002D05D080231B029D4204D9002C02DB29
:10510000064801F0A3FB280070BD054801F09EFB96
:105110002800E36998470500EAE7C0464903000014
:105120005103000070B504000D4886880168013EF7
:105130000ED3330001E0013B0AD39A008D188A5840
:10514000A242F8D1B34208D001F038F8286003E059
:10515000D220800001F07AFB70BD01F02FF8FBE750
:1051600004020020F0B54E46DE4657464546002371
:10517000E0B5704A85B013606F4B6F4A1B680390AF
:105180000093013313606D4B1B689946002B00D1CF
:10519000CCE0002301279B469A46019302934B469D
:1051A000029A5B6894469B084D469C449E00634669
:1051B0000835AE190293B54209D351E0BB4328002C
:1051C0002B60FFF78BFF80002D18B54248D22B686B
:1051D0003B42F3D11A0F062AF0D0AE4200D88BE042
:1051E0008022D2052C00904600E02368002B10DBC3
:1051F0003B4215D11A0F062A12D04246134208D15B
:10520000DB78F92B02D04E4801F020FB200000F0A3
:105210009DFF2000FFF762FF80002418A642E4D81B
:10522000631B019A98469B109B449A424EDA802158
:105230009A000906114300910193FF21280019F0FB
:10524000EEF9009B2B604346042B45DD00236B6089
:105250005346002B4BD0AA465D602500B542B6D31D
:105260004B461B689946002B99D136480368002BA2
:1052700014D05B465C082F4B1A68002A0ED01368C6
:1052800019018909A14206D949E013681B019B094C
:10529000C9188C4244D35268002AF6D15B46990063
:1052A000029B9A00019B9B002348C16003614069F7
:1052B000002813D0884211D80398C00713D405B032
:1052C000F0BCBB46B246A946A046F0BD9A0080237A
:1052D0001B0613430093B0E7250076E716484161AB
:1052E0000398C007EBD5184805F08EF9E7E7114B96
:1052F000AA461D60250068E7019B002B0BDA80237E
:105300001B062B60002301934B461B689946002B1C
:1053100000D044E7A9E780231B062B6055E70B006C
:10532000E318591A890052180260B7E700230022D7
:105330000021B9E7280200200C020020F80100201B
:10534000490300000002002044F1010010B51821BB
:105350000148FEF70DF910BD0C0200200122036880
:10536000934318888008704710B5002811D0C4688E
:10537000002C14D02368043C4360A3688360E36876
:105380002268C360530F032B04D180231B061343F1
:10539000236010BD0E4801F059FA2268F5E7041F9A
:1053A0002268530F032B07D180231B0613430020D1
:1053B000236001F0EFFBECE7054801F047FA80239A
:1053C00022681B0613430020236001F0E3FBE0E7A3
:1053D0004903000010B5041F2368DB0711D40D4BEF
:1053E0001B68002B11D01A0008329442F8D3596878
:1053F0008C4662449442F3D2012322681343236013
:1054000010BD054801F022FAE9E7044801F01EFA50
:10541000F2E7C046F80100204F0300004A030000F5
:1054200010B5040083071FD100281DD0030F1BD027
:105430000168104B194217D1CB78F92B14D10E4BC0
:105440001B68002B11D01A0008329442F8D3586818
:10545000844662449442F3D20123084819432160F0
:105460002200818800F096FE10BD054801F0EEF99B
:105470002168F1E703000040F8010020F00100205E
:105480004A030000F8B54746CE460E0080B5002519
:10549000070000292FD0234B9946234B9846AB0099
:1054A000FC58A30724D1002C22D0230F20D0216840
:1054B0001E4B19421CD1CB78F92B19D14B461B68D6
:1054C000002B1CD01A0008329442F8D35868844646
:1054D00062449442F3D201231943434621609988E0
:1054E0002200404600F056FE43469B88642B0BD8B2
:1054F0000135AE42D3D1C0BCB946B046F8BD0C4868
:1055000001F0A4F92168E6E70C2005F0A7FE094B9D
:1055100001351A6818600260AA00BF18751B476041
:105520008560E8E7F8010020F0010020030000405A
:105530004A030000FC010020F0B5C646040000B597
:10554000830743D1002841D0030F3FD00168234B8C
:1055500019423BD1CB78F92B38D1214B1B68002B5A
:1055600037D01A0008329442F8D35868844662440F
:105570009442F3D201230B432360032399438B69A5
:10558000002B01D02000984703239846154C164D58
:10559000A388002B0FD12868002817D003688668DD
:1055A00047682B6005F0A0FE31003800FFF76AFF66
:1055B000A388002BEFD0200000F000FE42460368D5
:1055C00093439B69002BE3D09847E1E780BCB84642
:1055D000F0BD064801F03AF92168CBE7030000402E
:1055E000F8010020F0010020FC0100204A03000027
:1055F000F8B54746CE4680B52C4B02001F689E8802
:1056000002231A408046914603423DD1002E0CD021
:1056100000240125A300F858284201D0A8430068BF
:105620000134FFF789FFA642F4D8404601F0B8FAEA
:105630001F4C2368002B15D01E4B1B685E8D00F09D
:105640003DFFB300851B2668F6184B46002B24D17E
:10565000002D07D00024A300F0580134FFF76CFFA1
:10566000A542F8D1144B1E68144B1D78002D07D0AD
:105670000024A300F0580134FFF75EFFA542F8D8DC
:10568000C0BCB946B046F8BD0D4804F0BDFF3200BD
:1056900039000C4804F0B8FFB8E72A0031000A4886
:1056A00004F0B2FF002DD5D1DCE7C0460402002093
:1056B0002C02002030020020240200200D0B0020CC
:1056C00060F1010068F1010074F10100F0B5C64617
:1056D000494E00B53368002B17D01B68002B00D152
:1056E0007BE0464C23789A076BD4022202201343B6
:1056F0002370FFF77DFF0220FFF734FD022223789D
:1057000015209343237001F0A1F80021CF20FEF76C
:10571000C5FC802180464901CE20FEF7BFFC050074
:10572000002005F02DFD43460027451B002B39D1F5
:10573000280005F093FD29000400083941608761C5
:1057400022002F4804F060FF63689A073FD12D4A7A
:105750005168013151609168C91891602A49DA1C79
:105760001140802212060A432849A2600A689B0859
:10577000E26022000832D3180A60254A13603368B9
:10578000002B01D09C4206D22360346080BCB84616
:10579000F0BD9C4203D31A001B68002BF9D1236093
:1057A0001460F3E71B4BC318DC0B4346E403980279
:1057B000241A002CBCDD200005F050FD2D1B070035
:1057C000B6E7D220800001F041F823788DE7D2209F
:1057D000800001F03BF86368B9E70021CD20FEF7B7
:1057E0005DFC0D4BC318002B00DC7AE70B4B0C4C17
:1057F000C1186160A4E7C046F80100200C0B00202E
:1058000080F101000C020020FCFFFF7F2802002035
:1058100000020020FF7F0000FC7BFFFFF47BFFFF06
:105820000084002070B50C4C050023789A070DD435
:105830000222280013432370FFF7DAFE2800FFF747
:1058400091FC022223789343237070BDD220800004
:1058500000F0FCFF2378EBE70C0B002010B50028CC
:1058600019D00F4B1B68002B16D01A00083290423B
:10587000F8D359688C4662449042F3D2041F2268E0
:10588000530F032B03D0074800F0E0FF226880236A
:105890001B061343236010BD05F026FDFBE7C04641
:1058A000F801002049030000F0B5D6464F464646B1
:1058B000C0B507293EDD00283CD00323CF1C9F4301
:1058C0003D4B061F9A461B789A0767D40222134362
:1058D000524600201370FFF78BFE0020FFF742FCBA
:1058E000534602221B78934352461370FB1D984681
:1058F0009F08324B1D68002D1CD0032399464B4650
:105900001D4201D12B0F02D12D4800F09FFF2C68C2
:10591000002C02DB2B4800F099FF731B9A101F2B01
:1059200005DD2401A409E41BA41A072C08DC6D681A
:10593000002DE4D10020E0BCBA46B146A846F0BD37
:105940008020B91800068900A400691804430C607F
:105950006C6847464C60696003218B4303432B60AE
:10596000194B92001F40C023DB051F435346AD185F
:105970002F601B789A0718D4022213435246002046
:105980001370FFF735FE0020FFF7ECFB53460222B1
:105990001B78281D934352461370CCE7D220800019
:1059A00000F054FF53461B7890E7D220800000F0AF
:1059B0004DFF53461B78DFE70C0B00202802002028
:1059C000510300004B030000FCFFFF9F70B5051F53
:1059D0002A680400530F032B03D0054800F036FF5C
:1059E0002A6880231B06134320002B6070BDC0462D
:1059F00049030000F8B54E46DE465746454680232B
:105A0000E0B5C61CB6089B02984200DD93E0534BFC
:105A10005B68DB0564D1524B9A461B785A0761D10B
:105A2000012213435246137001F0ACF8002803D052
:105A30004368002B00D18CE04A4B00279B464A4B21
:105A400099465B461D6800239846002D04D14FE01F
:105A5000A846002B4CD01D00002F03D14B461B68DD
:105A6000AB424ED3AB0701D12B0F02D13F4800F020
:105A7000EDFE2C68002C02DB3D4800F0E7FE24011F
:105A8000A4096B68A41BE3D40AD08022B600A1004D
:105A90001206AE190A433260012C01D07360330044
:105AA0004246002A4BD0536000222A60002B0AD0C5
:105AB0005B68002B07D09A0701D11B0F03D1D420BC
:105AC000800000F0C3FE534601221B782800934358
:105AD00052461370F0BCBB46B246A946A046F8BD7C
:105AE0001F4B9A46234800F0B1FE53461B7897E7B8
:105AF000002F06D0012F1AD0152000F0A7FE013785
:105B00009FE753461B789A071CD402221343524640
:105B100000201370FFF76CFD0020FFF723FB5346B6
:105B200002221B78013793435246137089E7FFF72F
:105B3000CDFD013785E7162000F088FE67E75A465D
:105B40001360B1E7D220800000F080FE53461B783E
:105B5000DBE7094800F07AFE6EE7C04600ED00E0A2
:105B60000C0B00202802002000020020510300003E
:105B70004B030000920300004E030000032310B506
:105B8000C41C9C43201DFFF735FF044B07341C4009
:105B90008023DB051C4310C010BDC046FCFFFFBFC7
:105BA00010B500280ED003230330984304000430BE
:105BB000FFF720FF044B07341C40C023DB051C43C8
:105BC00010C010BD0020FCE7FCFFFFBFF8B51C4B68
:105BD00006005B680D00DB051CD100F0D3FF194BFC
:105BE000194F1D60751BAD10041E3D7016D010209E
:105BF000FFF700FF154B0360636804300360A36880
:105C00004360E3688360E060002320003B70A6608F
:105C10006360F8BD0E4800F019FEDEE71C20FFF7B8
:105C2000E9FE04000B4B122208C40B4B82611B6877
:105C30004360002303614361200000F0ABFFE3E712
:105C400000ED00E0240200200D0B00201000006099
:105C5000920300001C0000602C0200200F4B10B5C6
:105C60005B68DB0503D10E4B1B78002B02D005F0DF
:105C7000F5FA10BD00280ED003330330984304001A
:105C80000430FFF7B7FE074B07341C40C023DB0589
:105C90001C4310C0EDE70020EBE7C04600ED00E03C
:105CA0000C0B0020FCFFFFBFF8B504000E00194BE1
:105CB0001B68002B27D01A0008329442F8D3596889
:105CC0008C4662449442F3D23000FFF7C7FF0500D0
:105CD000002C1DD0002D1BD0271F3B685A0F032A14
:105CE00003D00D4800F0B2FD3B681A019209920002
:105CF000B24200D932002100280018F074FC2000C4
:105D0000FFF7ACFD04E03100200005F01BFB0500AF
:105D10002800F8BDF801002049030000F8B500296B
:105D20000ED001290DDD05000127094E4C1E2A0069
:105D30003000B1883A4300F02DFA0435013CF6D228
:105D4000F8BD012202430248818800F023FAF7E7F8
:105D500004020020020010B5830703D1002801D0FF
:105D6000030F00D110BD0248818800F013FAF9E753
:105D70000402002010B5830703D1002801D0030FCF
:105D800000D110BDFFF7CEF9FBE7C04670B54668FD
:105D90000500002E18D0341F2368DB0715D40F4BE5
:105DA0001B68002B15D01A0008329442F8D35968AA
:105DB0008C4662449442F3D201232268300013439C
:105DC00023602989FFF75EFB70BD054800F03EFDAA
:105DD000E5E7044800F03AFDEEE7C046F801002090
:105DE0004F0300004A03000010B581880C30FFF714
:105DF00049FB10BD10B54468A3071FD1002C1DD06E
:105E0000230F1BD02168104B194217D1CB78F92BE7
:105E100014D10E4B1B68002B11D01A00083294428B
:105E2000F8D35868844662449442F3D20123084868
:105E3000194321602200818800F0ACF910BD0548AB
:105E400000F004FD2168F1E703000040F8010020A4
:105E5000F00100204A03000070B546680500002EDE
:105E600018D0341F2368DB071FD4144B1B68002B8A
:105E70001FD01A0008329442F8D359688C46624405
:105E80009442F3D20123226830001343236029890E
:105E9000FFF7F8FAEC68002C06D02000FFF79AFA1A
:105EA0002000298AFFF7EEFA70BD054800F0CEFC0D
:105EB000DBE7044800F0CAFCE4E7C046F801002034
:105EC0004F0300004A030000012208C810B59343A5
:105ED000198804398908FFF7D5FA10BD03207047E7
:105EE000808880000F3080087047C04602207047CD
:105EF000052070470023034A13605360024A136071
:105F00005360704704020020F001002010B500F03B
:105F10009FFD10BD10B5002801DB00F091FD10BD04
:105F20007047C0460023436083607047002343608E
:105F30008360C3600361704710B5054A0100838820
:105F400012688068821A034804F05EFB10BDC046E8
:105F50003002002094F1010010B5010042680248AF
:105F600004F052FB10BDC046B0F1010010B50100B5
:105F70000289024804F048FB10BDC046C4F101008C
:105F8000F8B50400C0880D0088420ED3A288914263
:105F900001D3A580F8BD2368521A9C468800920060
:105FA0000021604418F03BFBF3E700282CD03F2889
:105FB0000ADD80239B00984228DB0130164BFF301E
:105FC000984202D9154800E040002E00854200DAD0
:105FD0000600B00005F042F90700E08800280CD167
:105FE000321A800000219200381818F018FB20683F
:105FF00005F07AF92760E680CBE782002168380057
:1060000018F0F1FAE088EBE70420DEE783000321D3
:1060100018180EF053FBD8E7FEFF0000FFFF00004A
:106020007047C0467047C046416870B5194B1A4D5D
:106030000A68040029609A4224D0088C8000FFF787
:10604000AFFD2B68154E1A8C00219200306018F0BD
:10605000E6FA33681E602E68114B32689A4200D00F
:10606000FEE7A36832699A42FAD100F017FD3000CA
:106070002B68002200211C6B40300023A04700F059
:10608000DBFC06E00748103104F0BEFA064800F0D9
:10609000DDFB70BD718E3B92300200202C0200208F
:1060A000708E3B92D8F101009F030000012370B570
:1060B0000A6804009A4313890D00042B14D1002CA4
:1060C00010D0E01C8000FFF795FC06000B4B22046B
:1060D0000360AB68848083600021920B0C3018F061
:1060E0009EFA3500280070BD01220549054804F0DC
:1060F0008BFA034800F0AAFBE1E7C04668F2010012
:1061000085030000F4F101000E4B026970B5040034
:106110009A420BD12088FFF76DFC050022880021F0
:1061200010C0043A18F07BFA280070BDE221032267
:106130000548890004F068FAE220800000F086FB40
:10614000E8E7C046215F0000F4F10100012310B52B
:1061500002689A431369984710BDC046012310B5E1
:1061600002689A431369984710BDC046012310B5D1
:10617000026801009A431288014804F045FA10BDF4
:1061800004F20100802310B55B02994201D2FFF7AF
:10619000F7FE10BD084B70B505000C0016009942C3
:1061A00005D883888B4203D92B68A400E65070BDC4
:1061B0000131FFF7E5FEF7E7FEFF000083880200EC
:1061C0000020002B08D0013B9BB2938012689B00FB
:1061D000D318002218681A607047C046F8B5C58801
:1061E00004000F00002D19D03F2D10DD80239B00EF
:1061F0009D4229DB6B1C1E4AFF3393422FD81E1C85
:106200009BB28B4208D3B6B2B5420CD3F8BD6B003B
:106210001E1C9BB28B42F6D23E1CF4E70E1C0429D6
:1062200000D20426B6B2B000FFF7A8FC0500E08853
:10623000002816D1321A800000219200281818F088
:10624000EEF92560E680E1E7A800032140190EF091
:1062500035FA061C80B2B842D5D23E1CD3E7054EB3
:10626000D2E782002168280018F0BDF9E088E1E754
:10627000FEFF0000FFFF0000C38870B506000C00A1
:1062800015008B4207D8084B994200D970BD0131E7
:1062900089B2FFF7A3FF3268A3009D50B388A342E1
:1062A000F4D80134B480F1E7FEFF0000C38870B574
:1062B00005008CB28B4201D2A34201D9AC8070BDE3
:1062C0002100FFF78BFFF9E7838802000020002BF5
:1062D00008D0013B9BB2938012689B00D318002228
:1062E00018681A607047C046F8B582880400002517
:1062F0008A420CD903688E0098194F1C0568BA426F
:1063000007D80021013A92B2A2809200D150280011
:10631000F8BDC9438A18311D9200591818F06CF95C
:10632000A2882368EDE7C046F8B5838804000D0015
:1063300016008B4219D9591CC28889B28A4210D9D9
:10634000691C206889000F1F5B1B9A00C319401845
:10635000190018F051F92368DE51A3880133A38096
:10636000F8BDFFF73BFFA388EAE7FFF785FFF7E7F4
:1063700070B50500C38882880168094804F044F9B3
:10638000EB88002B0BD00024064E2A68A3009958F6
:10639000300004F039F9EB880134A342F5D870BD20
:1063A00020F2010044F2010010B50400010002894E
:1063B000034804F029F9201DFFF7DAFF10BDC0469D
:1063C0004CF20100024B036000234360836070477E
:1063D000F8F20100024B0360002343607047C0469F
:1063E000C8F20100034B0360002343608360C36075
:1063F0000361704798F20100F8B54746CE4680B574
:1064000006890C004768002E30D0002002E00130E1
:10641000B04207D28300FB58A342F8D1C0BCB946B2
:10642000B046F8BD236820005B6A98472368804621
:106430001B6A200098470024814602E00134B442E0
:106440001CD2A300FD582B6828005B6A9847404582
:10645000F4D12B6828001B6A984742460100484641
:1064600018F0B3F80028E9D12000D7E70B6808003E
:106470005B6A9847236820001B6A984701204042C6
:10648000CCE7C0467047C04610B504000A000100C2
:10649000034804F0B9F8200000F0D8F910BDC04658
:1064A000F4F10100014B1B681869704730020020AD
:1064B000014B1B689869704730020020014B1B6834
:1064C000188C704730020020014B1B68D86B704756
:1064D000300200200448054B026810B59A4202D1F0
:1064E000FFF7A2FD10BDFEE7E0E60100104200004C
:1064F00003000020002B07D09A0705D101221B685A
:106500009343DA78F92A00D0704718890638434255
:106510005841C0B2F8E7C04670B506000C20FFF73E
:1065200069FA164B04000360002343608360002E69
:1065300008D0B30706D1012332689A431300D278FA
:10654000F92A01D0200070BD0D4A9342FAD1358955
:10655000002DF7D0FFF7FEFB63899D4203D9290088
:10656000201DFFF73BFE716860682581AA0018F0C6
:106570003AF82000FFF7FEFBE4E7C046F8F201001E
:1065800098F2010070B504000D00002801D08307C7
:1065900013D00F4800F05AF929002000FFF72CFF14
:1065A000051E08DB2900201DFFF79EFE20002900A4
:1065B0000C30FFF799FE422070BD012302689A4318
:1065C0001300D278F92AE4D1024A9342E4D0E0E7FA
:1065D0009B03000098F2010070B50E00FDF7A8FEC5
:1065E000040030000D00FDF7A3FE02000B002000A8
:1065F000290012F0A7F9FDF76DFA70BD10B5FDF78F
:1066000097FE11F0ABFFFDF765FA10BD10B5FDF771
:106610008FFE11F051FFFDF75DFA10BD10B5FDF7CB
:1066200087FE11F019FCFDF755FA10BD10B5FDF706
:106630007FFE11F0E3F9FDF74DFA10BD10B5FDF73F
:1066400077FE12F04DF9FDF745FA10BD10B5FDF7D4
:106650006FFE12F0E3F8FDF73DFA10BD10B5FDF73F
:1066600067FE12F0CDFBFDF735FA10BDF0B5C6465A
:1066700000B503020E0082B01B0E00D01E00FA23EC
:106680000004040C1B01E718380001F02BFB051E69
:1066900004D0280002B080BCB846F0BDF0233340DF
:1066A000102B1BD0202B1CD000229046302B02D068
:1066B0000D4800F0CBF8200001F0F8FA0400182093
:1066C00017F05FFF0F2143460E4001932100012385
:1066D000BAB20096050006F085FBDAE7012398467A
:1066E000E9E702239846E6E72303000070B50D00B2
:1066F00001214942FDF7D2FC0400431C04D02900CB
:106700002000FFF7B3FF70BD014800F09FF8F6E7E7
:106710008B030000F0B5C64600B507000E0090469A
:106720001D0001F0DFFA041E03D0200080BCB84633
:10673000F0BD29003000FFF799FF29000600404610
:10674000FFF794FF0500102017F01BFF0400AA8834
:10675000BBB2B18807F0A0FC3000002106F074FB4A
:106760002800002106F070FB0121200007F0E0FC6A
:10677000DBE7C046012170B5494204000420FDF763
:106780008DFC0121050049420520FDF787FC2021F1
:106790000600CA20FDF782FC0100002C0AD0012C63
:1067A00011D0022C0AD10300320029000320FFF788
:1067B000B1FF70BD2800FFF759FFFAE7044800F069
:1067C00045F80020F5E73000FFF750FFF1E7C0463D
:1067D0008D03000010B52021007CFFF747FF10BD9E
:1067E00010B51023808800F0A5FA10BD036810B51D
:1067F0009B699847431E9841C0B210BD10B504F084
:106800005DFE431E9841C0B210BDC04680887047EF
:1068100070B5D31872B61578013280244160032612
:10682000013EFDD12C4200D101600626013EFDD182
:106830000160641004D0E4B20226013EFDD1EDE710
:106840009A4200D2E7E762B670BDC046F0B5DE46B8
:1068500057464E4645468146E0B583B000AF03F04B
:10686000FFFB49463D4803F0CFFE01211420494279
:10687000FDF714FC01F01AFAEB46804600284FD0D1
:106880000021C820FDF70AFC061E49DD69464300C9
:106890001A18D31DDB08DB00CB1A9D460021684681
:1068A0003B607A6017F0BBFE2D4B6D4600249A4684
:1068B000A6420ADD4B460122234151461A4200D12D
:1068C00028490322280017F08EFE013403350A2CD4
:1068D000EED143461B6800211B68404698470120C3
:1068E00003F0D0FB43461C7C1B6800211B6840461C
:1068F00098471F230121234099401B4B60119C4660
:10690000C00160443A687B68FFF782FF43461B681A
:1069100000211B684046984703F0A2FBDD4600E0DB
:10692000DD4601210D204942FDF7B8FB01F0BEF91B
:10693000041E12D0236801211B68200098473220D2
:1069400003F0A0FB2368002120001B6898479620D5
:10695000400003F097FB002CECD1FEE728F3010088
:1069600040F3010044F30100144400410048704723
:1069700016FCFFFF10B5044B00221B6800211C6BA6
:106980000023A04710BDC0463002002010B5FFF71D
:10699000F1F904F06BFB10BD10B5034C2000FFF7BC
:1069A00055FF200010BDC0460BFCFFFFF0B5CE46E2
:1069B000474680B585B0060C009001910292694669
:1069C000102287B21248039317F00DFE31003800F1
:1069D000FCF78AFC04003000FDF774F98046002CB7
:1069E00010D00C4B99464B461B68002241461D6B4C
:1069F000E0680023A847206832003900FCF762FCF9
:106A0000041EF0D105B0C0BCB946B046F0BDC046CA
:106A1000B80100203002002070B50500054E336833
:106A200000221C6B002100232800A047142004F042
:106A30005BFAF4E73002002010B504F017FB10BD3C
:106A400010B504F051FA10BD10B503F017FB10BDDE
:106A500010B5041E06D0FFF77DF92100024A034855
:106A600004F0FCF810BDC0469DB00000196A00009B
:106A700010B5041E06D0FFF76DF92100024A034845
:106A800004F0ECF810BDC0468D6900007569000087
:106A900010B589B280B204F017FA10BD70B501F0DC
:106AA0004DFB0400302017F06CFD01232100002273
:106AB00006F014F801F0DCFB1E4B1B681C8D002C4B
:106AC00027D11D4803F086FF1C4C1D4E651CFF3569
:106AD00002E00434AC420AD020680028F9D00368F0
:106AE0001B68B342F5D004349847AC42F4D101F0AE
:106AF00097FC01210D204942FDF7D0FA01F0D6F8AC
:106B0000002803D0036800211B68984701F086FB2A
:106B100070BD21000B48FEF7C7FE210005000200F2
:106B2000094803F071FD002DCBD11420FFF78EFE34
:106B3000C7E7C0463002002034020020A404002031
:106B40006D6900000020002048F30100054B10B5DE
:106B50001C68FDF799FA044B9C4664442018400ACF
:106B6000400210BD30020020FF01000010B503F00C
:106B7000A1FA10BD10B505F035FF10BD10B505F038
:106B800041FF10BD024B1868002800D0406A7047D2
:106B9000A8090020014B1B6858627047A809002013
:106BA000F0B54E46DE4657464546E0B5504B87B0F9
:106BB00099461B680390002B00D186E003F05EFE2F
:106BC000002800D189E00024006A01340028FBD1AC
:106BD000A00004F043FB029003F050FE002862D0B6
:106BE0000023029A002A01D099005050006A013314
:106BF0000028F7D10193A34261D100239B46009363
:106C0000019B002B06DC50E0009B019A01330093AE
:106C10009A424AD0009B029A9B00D7587E6A002E67
:106C2000F2D07069FEF788FC0223039A0436134001
:106C30009A464B461B6834689F4224D03868BD682A
:106C400003F04EFA4B461B682D1A641975689F4273
:106C500007D0BB683868984603F042FA4346181AD2
:106C60002D185346002B12D1AC4204D201CCFEF7B2
:106C700063FCA542FAD8B668002EC5D04B461B6807
:106C800034689F42DAD153467568002BECD001235B
:106C90005B4498462B1B5946220016489B1003F074
:106CA000B3FCC346E0E7002C09D1029804F01CFBBA
:106CB00007B0F0BCBB46B246A946A046F0BDCB200B
:106CC0008000FFF7C3FD019497E7012004F0C6FAA6
:106CD0000590059804F008FBEAE7002004F0BEFAEE
:106CE000029003F0CBFD0028DFD0002478E7C046F7
:106CF000A809002058F3010010B5084807F026FE47
:106D0000074C200006F0D4FE2000064A064917F082
:106D10002DFC064B064A1A6010BDC046B801002083
:106D200034020020B4000020F1D900005C020020F1
:106D3000B0F80100F0B557464E464546DE46E0B590
:106D40008DB004000D0016001F00FCF7CDFA0028DE
:106D50000BD0320029002000FCF7DEFA0DB0F0BCA9
:106D6000BB46B246A946A046F0BDBFB20F2C01D12A
:106D7000C02F10D1282017F004FC82461E4BA1B270
:106D8000AAB2009704F0FAFA1C4B5146180006F01C
:106D90004DFD002828D1002DDBD1012120004942E2
:106DA000FCF7A2FA071ED4D0A3B29B46124B994619
:106DB000124B984610239A4653463A8959460093F7
:106DC00002A84B4604F0DAFA02A9404606F0D8FCC5
:106DD00002A804F0EDFA0122386821005242FCF7C3
:106DE00071FA071EE8D1B4E7504604F0E1FA5046C4
:106DF00017F0C3FBCFE7C046AD69000034020020A6
:106E000000B585B08AB2012381B2684607F04EFD15
:106E100005B000BD012110B502484942FCF718FB3E
:106E200010BDC04664F3010010B506F08BFF10BD25
:106E3000036810B51B6A98470100024803F0E4FBA1
:106E400010BDC0466CF30100036810B51B6A0C004E
:106E5000984722000100024803F0D6FB10BDC0464F
:106E600074F301000148C000C00870470080002092
:106E70000048704716FCFFFF0048704716FCFFFFF4
:106E80000048704716FCFFFF002070472023C05CBD
:106E90001F3B58407047C0462023C35C002B01D1E4
:106EA000014870470148FCE738F401004CF4010048
:106EB0000048704784F40100202310B5C35C0C0027
:106EC00084B0002B17D05378062B14D1D378212B04
:106ED00008D0222B0FD121222000084909F03CFDC7
:106EE00004B010BD01A904F039FE0922200001A957
:106EF00009F032FDF4E70248F2E7C04660F4010011
:106F000016FCFFFFF0B557464E464546DE46E0B557
:106F10001C00294B804691B018688A46160004F080
:106F200069FF00283FD01A9F7B1C00D0043403F077
:106F300097F8002C35D05346402B3BD0DBB29B4614
:106F400023E0A146534625002B4300936B46581C73
:106F50007B1C0BD004221AA917F045FB01235B42CE
:106F60004D461A936B46043C043D581D31002A00DF
:106F700017F039FB4346402269469868641B76192E
:106F800009F0EAFC002C0CD01A9F3C22002101A839
:106F900017F045FB3F2CD4D93F225B463F25914655
:106FA000D2E703F04FF811B0F0BCBB46B246A94699
:106FB000A046F0BD0023C1E7D409002000B5064972
:106FC000837802000868054983B000910C334021A2
:106FD000FFF798FF03B000BD64020020200080008E
:106FE000F0B5CE4647461D4B80B599461C4B1D4D0E
:106FF00098461D4E83B02B78002B20D101277F426D
:107000004246F36949465A60F0690422083017F095
:10701000EAFAF36940211A1D300008230097FFF7B0
:1070200071FF142405E03220013C03F05DFF002CC9
:10703000E1D02B78002BF6D02B78002BE0D00B4C36
:107040002068002803D004F04FF9002323600023B8
:107050002B7003B0C0BCB946B046F0BD6002002042
:10706000FDF992360E0B0020E80200206802002095
:1070700010B50C00017D82B000290AD0591E8B4149
:10708000990101235B420093803113002200FFF736
:1070900039FF002002B010BD70B590B0040040224E
:1070A0006946C06809F0DCFB002830DD6B461D78BE
:1070B000E3691A88002A0FD069B200292BDB3F262A
:1070C00082212E4090194900884207DDBA2005F040
:1070D000A3F9E3691A8801E03F262E40181D6B468C
:1070E0008018591C320017F07EFAE26900201388DC
:1070F0009E193F2316809D4309D0402D09D0802D35
:107100000FD0022393700022E36918881A8010B010
:1071100070BD9070F7E7B82005F07EF9E3691A8832
:10712000CDE701239370EEE7802330B55B000500C7
:10713000140083B09A4210DCC069083017F053FA8B
:107140000121EA69494200912800231D043241319E
:10715000FFF7D8FE002003B030BDC3695B68009321
:1071600013000A004021FFF7CDFEF3E7F0B587B02A
:107170000400FFF791FF051E04D0E769BB78002BE0
:1071800003D00025280007B0F0BD3A897E68BA8098
:10719000FB80FFF7EFFC0122A0612275212E07D8AA
:1071A000002E34D0212E32D87A4BB6009B599F4600
:1071B000794B9E4200D1BFE00BD9784B9E4226D13D
:1071C000774B20001A68774B1968FFF7ADFF050071
:1071D000D8E7754B9E4214D0744B9E4217D1744B26
:1071E000F9681B681960734B1A70E36940211A1D16
:1071F00001235B42009320000533FFF783FE002547
:10720000C0E76D4B6D4A1A6002F046FFEDE70123BF
:10721000FB80EAE76A4BDD68F03B6A1EFF3A9A4260
:1072200000D2A5E00322674D29002000FFF77CFF74
:107230000500A7E7644B1B68002B00D1A6E03800CF
:107240000C309847D1E7102D03D03820FF3005F0DF
:10725000E3F83D69402D00D98FE03900F868083126
:107260006A1E002D05D00023C658CE500433013AC3
:10727000FAD20121E269AB004942009120000433B7
:1072800004324131FFF73EFE00257BE70223BB605D
:107290000023FB603B610533FF337B614B4B402197
:1072A000BB61E36920001A1D01235B42009319337F
:1072B000FFF728FE002565E74549200004C9FFF7D0
:1072C00033FF05005EE73B7B002B4ED0414B424A2B
:1072D0001C60424B1A6088E739698B001033AB425F
:1072E00004D03220FF3005F097F83969FB684A1E58
:1072F000FF1A1037002900D177E719000433D85955
:107300000860013AF9D270E7354B364A1A60BFF38C
:107310004F8F354B354ADA60BFF34F8FC046FDE7DC
:1073200000222F4B1A60BFF34F8F2F4B2F4ADA608A
:10733000BFF34F8FC046FDE7FFF7C0F81C4B04902A
:10734000E0691B68082204A908300393059317F02D
:107350004AF9E36940211A1D01235B420093200092
:107360000D33FFF7CFFD00250CE71C4A13603CE707
:10737000280017F094F9020056E73A20FF3005F094
:107380004BF83900F86808316A1E6CE70223FB806D
:107390002BE7C04684F30100E066FC5310159070A3
:1073A0006C0200206802002093BD20113159A527EE
:1073B0002C0200200E0B0020047800207FACEBF0A4
:1073C000F01F000080F30100E4020020882BED682C
:1073D000A405002064020020BD6F0000E002002030
:1073E000FC7F0020EF6926F000ED00E00400FA05C4
:1073F000074A002308320260C16120220021037184
:107400008360C36003618382815483617047C04697
:10741000B4F40100F0B50400C56983B0290029481F
:1074200003F0F2F8E369002B13DB6068A91E6B8898
:107430002A8809880190A0690090234803F0E4F8A5
:107440002B88224A93420DD0D022D201934219D0E8
:10745000FEE703225B005B08E3611D4B1B681A60BB
:1074600003B0F0BDE3690233E3616368032BF7D136
:107470000022174B1B681A608023A2691B06134366
:10748000A361EDE72600E369124FDA1CA261124AFC
:1074900002331248124D136024363B68801B28606B
:1074A000002B03D0180003F01FFF286803F0D6FE5E
:1074B0002A683100386017F096F80122094B93438F
:1074C000E361CDE70CF4010014F401004068000012
:1074D0002C020020680200206002002000800020B2
:1074E0006C020020E16F000000B56846FFF792FFD4
:1074F00000BD7047F8B505000E00002814D0002923
:1075000012D01C4F3C68002C03D121E0246C002CCD
:107510001ED023689D42F9D163689E42F6D1164879
:1075200003F072F82000F8BD144803F06DF8012153
:1075300019204942FCF7B2FD00F0B8FB012105001B
:1075400049421820FCF7AAFD00F0B0FB0600D8E77E
:107550000B4803F059F8442017F013F804000560B5
:10756000466032002900083009F0F0FC3B683C60BE
:107570002364D7E770020020ECF40100D0F401008E
:1075800004F5010010B5FFF7B5FF083010BDC04687
:10759000F0B5C64600B5060082B00D00002011000F
:1075A00017009846FBF7E4FF0400FEF7D3FB4346C1
:1075B000220030006900083289B2009308303B0095
:1075C00009F0F4FB05006B425D416D4220002C4048
:1075D000FEF7D0FB200002B080BCB846F0BDC0462C
:1075E00010B51C0082B04900536889B2083200947B
:1075F000083009F099FB02B010BDC046F0B5C64690
:1076000000B51E4E050037680C0082B0002F23D055
:1076100004372B6828001B6A98472B6806005B6AB2
:1076200028009847310002B2684607F015FA69460B
:1076300001A807F039FA22006368083201A938006E
:1076400005F076FE01A807F0FFF9684607F0FCF99F
:1076500002B080BCB846F0BD102016F092FF804604
:1076600008F07EF8434604221F1D4146380052426E
:1076700005F0D6FC43463360CBE7C04674020020D9
:10768000F0B5214D04002E6883B0002E2DD00436B5
:10769000236820001B6A9847236805005B6A200066
:1076A0009847290002B2684607F0D6F9694601A852
:1076B00007F0FAF9300001A905F03EFD040001A829
:1076C00007F0C2F9002C0ED0200020211030FBF76B
:1076D0004FFF05002000FEF7C1F8684607F0B4F937
:1076E000280003B0F0BD0025F7E7102016F049FF91
:1076F000070008F035F804223E1D390030005242E0
:1077000005F08EFC2F60C3E774020020F0B51A4D1F
:1077100004002E6883B0002E1ED00436236820009B
:107720001B6A9847236805005B6A20009847290078
:1077300002B2684607F090F9694601A807F0B4F96B
:1077400001A9300005F0AEFE01A807F07DF96846FA
:1077500007F07AF903B0F0BD102016F012FF070011
:1077600007F0FEFF04223E1D39003000524205F0B2
:1077700057FC2F60D2E7C0467402002070B50C4D54
:107780002C68002C04D00434200005F091FE70BD5C
:10779000102016F0F6FE060007F0E2FF0422341D6A
:1077A00031002000524205F03BFC2E60ECE7C04661
:1077B0007402002070B5D31872B615780132802497
:1077C00041600326013EFDD12C4200D10160062616
:1077D000013EFDD10160641004D0E4B20226013EF6
:1077E000FDD1EDE79A4200D2E7E762B670BDC04630
:1077F000F0B557464E46DE4645465300E0B59B1869
:107800001700F0229146994485B082464846884642
:1078100016F0C9FE4A460021060016F000FF002FB0
:1078200036DD40468024802278230021BC46039028
:1078300010E003982024405C0133104204D08025DE
:10784000F05C6D422843F054520801D1013180327E
:107850008C451DDDF05CF51820436708BB46287099
:10786000E7D0039F7F5C17420CD1A00880464046BA
:10787000002802D140240133E6E7E408E4D1802463
:107880000133E1E7A708B8465F4638432870EEE7C2
:1078900000220021504600F025FD036804001B680B
:1078A0000A49984700222368009231004A46DD6861
:1078B00020000023A847300016F05FFE05B0F0BCA2
:1078C000BB46B246A946A046F0BDC046009F240074
:1078D000F8B504000F001600182A08D9012113205A
:1078E0004942FCF7DBFB00F0E1F9844218D0236841
:1078F00000211B682000257C98471F2301212B4075
:1079000099400A4B68119C46C001330060443A001C
:10791000FFF750FF2368002120001B689847F8BD3F
:10792000320039002000FFF763FFF8E714440041FC
:10793000F0B5D6464F464646C0B51E0003680C005B
:107940001B68002107002025984722680121126842
:10795000200090472268002120001268013D9047D6
:10796000002DF2D1089B002B22D0B1464B449A4601
:107970004B461B78082698468025414629404B1ED9
:1079800099413B6838001B689847236801211B68B0
:10799000200098472368002120001B68013E98477B
:1079A0006D08002EE9D101239C46E144CA45DFD190
:1079B0003B68012138001B68984720252368012176
:1079C0001B68200098472368002120001B68013DA8
:1079D0009847002DF2D1E0BCBA46B146A846F0BDAA
:1079E000F0B5CE46474680B50A0083B000211E00A0
:1079F00000F078FC0025040003680095184FDB6850
:107A00003900984604220023C04723680095DB68AC
:107A1000310098460A9A00232000C0472368009549
:107A20003900DD68042200232000A8470A9BDF08F4
:107A300010D00C4B002599460023984642462368F7
:107A40000092DE6804220023494620002035B0471A
:107A5000BD42F3D303B0C0BCB946B046F0BDC0468A
:107A600078020020BC000020F0B504000D001700D3
:107A70001E0083B0002819D0002917D0002B15D084
:107A8000089B002B12D0182B12D901211320494238
:107A9000FCF704FB00F00AF9844209D1089B3A0084
:107AA0000093290033002000FFF79AFF03B0F0BDD8
:107AB000089B3A000093290033002000FFF738FFAD
:107AC000F4E7C04610B582B000280BD0002B09D0D7
:107AD0005C68002C06D00833042A05D01900220067
